:100000000C9450000C949D000C949D000C949D0049
:100010000C949D000C949D000C949D000C949D00EC
:100020000C949D000C949D000C949D000C949D00DC
:100030000C949D000C949D000C949D000C949D00CC
:100040000C949D000C949D000C949D000C949D00BC
:100050000C949D000C949D000C949D000C949D00AC
:100060000C949D000C949D000C949D000C949D009C
:100070000C949D000C947A000C949D000C949D00AF
:100080000C949D000C949D000C949D000C949D007C
:100090000C949D000C949D000C949D000C949D006C
:1000A00011241FBECFEFCDBFDFE3DEBFE0EAF0E0FB
:1000B00040E017C0B591A59135912591059107FDB7
:1000C0000CC095918591EF01F92FE82F05900D92C5
:1000D000A217B307D9F7FE0104C01D92A217B307F8
:1000E000E1F7E03AF40731F70E9494000C947800AD
:0400F000F894FFCFB2
:1000F4001F920F920FB60F9211248F93EF93FF93D9
:100104008091A904803431F4E0EAF4E080E287834A
:1001140080E48187FF91EF918F910F900FBE0F9034
:040124001F9018957B
:10012800E0EAF4E080E2818385838BE0868B789433
:02013800FFCFF7
:04013A000C94000021
:02000004008278
:090000000000020000C00700002E
:02000004008377
:01000000C53A
:00000001FF
