:100000000C9450000C9480000C9480000C948000A0
:100010000C9480000C9480000C9480000C94800060
:100020000C9480000C9480000C9480000C94800050
:100030000C9480000C9480000C9480000C94800040
:100040000C9480000C9480000C9480000C94800030
:100050000C9480000C9480000C9480000C94800020
:100060000C9480000C9480000C9480000C94800010
:100070000C9480000C9480000C9480000C94800000
:100080000C9480000C9480000C9480000C948000F0
:100090000C9480000C9480000C9480000C948000E0
:1000A00011241FBECFEFCDBFDFE3DEBFE0EAF0E0FB
:1000B00040E017C0B591A59135912591059107FDB7
:1000C0000CC095918591EF01F92FE82F05900D92C5
:1000D000A217B307D9F7FE0104C01D92A217B307F8
:1000E000E1F7E03AF40731F70E947A000C947800C7
:0400F000F894FFCFB2
:0C00F400E0E2F4E080E286838583FFCF29
:040100000C9400005B
:02000004008278
:090000000000020000C40700002A
:02000004008377
:01000000C53A
:00000001FF
