:100000000C9453000C9420020C94CC010C9420020C
:100010000C9420020C9420020C9420020C942002D8
:100020000C9420020C9420020C9420020C942002C8
:100030000C9420020C9420020C9420020C942002B8
:100040000C9420020C9420020C9420020C942002A8
:100050000C9420020C9420020C9420020C94200298
:100060000C9420020C9420020C9420020C94200288
:100070000C9420020C9420020C94BD010C942002DC
:100080000C9420020C9420020C9420020C94200268
:100090000C9420020C9420020C9420020C94200258
:1000A0002800280B800011241FBECFEFCDBFDFE357
:1000B000DEBFE0EAF0E040E017C0B591A5913591D0
:1000C0002591059107FD0CC095918591EF01F92FC0
:1000D000E82F05900D92A217B307D9F7FE0104C0CF
:1000E0001D92A217B307E1F7E53AF40731F70E9432
:0A00F000F6000C947B00F894FFCF9B
:1000FA000F931F93CF93DF930E94430140E054E094
:10010A00FA01108220E234E0F901108280E494E0DE
:10011A00FC011082C0E6D4E01882A0E8B4E01C9288
:10012A0000EA14E060E2F8016083FA011482F9013E
:10013A001482FC0114821C8214961C921497F801F2
:10014A001482FA01108A118A128A138A148A158A69
:10015A00168A178AF901108A118A128A138A148A4E
:10016A00158A168A178AFC01108A118A128A138A3A
:10017A00148A158A168A178A188A198A1A8A1B8A69
:10018A001C8A1D8A1E8A1F8A50961C925097519665
:10019A001C92519752961C92529753961C925397BF
:1001AA0054961C92549755961C92559756961C92A3
:1001BA00569757961C92F801108A118A128A138A46
:1001CA00148A158A168A178AE0EEF5E011821082DF
:1001DA001482158213821282DF91CF911F910F919F
:0201EA00089576
:1001EC000E94DB010E94120281113BC088E090E06A
:1001FC008093082890930928C0E06C2F80910828E0
:10020C00909109280E94A00180930A2880910828C7
:10021C009091092801968093082890930928CF5F24
:10022C00C83059F788E090E080930828909309280B
:10023C00C0E0D0E080910828909109280E94180213
:10024C00FE01E050F84D8083809108289091092898
:10025C00019680930828909309282196C830D105DF
:10026C0049F7E0EAF4E080E2878325E136E195E0A6
:0A027C00215030409040E1F7F7CF29
:10028600E0E9F4E0808188608193E83984E0F8074A
:10029600C9F7E0EBF4E0808188608193E83B84E075
:1002A600F807C9F7E0E1F4E0808188608193E831DE
:1002B60084E0F807C9F7E0E3F4E080818860819381
:1002C600E83384E0F807C9F7E0E5F4E08081886068
:1002D6008193E83584E0F807C9F7E0E7F4E0808128
:0E02E60088608193E83784E0F807C9F708952F
:1002F40040E068ED88E790E00E941C0240E068ED71
:100304008CE790E00E941C0240E068ED80E790E0FA
:100314000E941C0241E168ED81E690E00E941C020B
:1003240040E068ED80E690E00E941C0240E068ED49
:0C03340082E690E00E941C0280E0089528
:100340001F93CF93DF93EC01162FE0E0F0E1828161
:1003500081FDFDCF44E06DE980E090E10E941C0248
:10036000DC5E188343E06DE980E090E10E941C02AE
:0A03700080E0DF91CF911F91089506
:10037A001F920F920FB60F9211248F9381E08093F0
:0E038A0004108F910F900FBE0F901F901895CA
:100398001F920F920FB60F9211248F9381E08093D2
:0E03A8008A008F910F900FBE0F901F90189536
:1003B6000E947D000E94F6010E940A020E947A01B4
:0E03C6000E9402020E9412020E94EA010895A3
:1003D40040E068ED80E191E00E941C02E0E1F1E080
:0803E4001282138280E00895EB
:1003EC0040E068ED80E890E00E941C02E0E8F0E05C
:0803FC001186108680E00895CF
:1004040040E068ED80E590E00E941C0280E00895E1
:1004140040E068ED80E091E00E941C0280E00895D5
:0C042400E0E0F0E11182138280E0089516
:080430009C5EFC01808108952F
:08043800FC0164BF408308953C
:040440000C94000018
:02000004008278
:090000000000020000C00700002E
:00000001FF
